:020000040800F2
:10000000E0180020A5010008AD010008AF010008BC
:10001000B1010008B3010008B501000800000000AC
:1000200000000000000000000000000001010008C6
:10003000B90100080000000045010008F533000880
:10004000BF010008BF010008BF0100087F310008A0
:10005000BF010008BF01000889030008BF010008B4
:10006000BF010008BF010008BF010008BF01000870
:10007000BF010008BF010008BF010008BF01000860
:10008000BF010008BF010008BF010008BF01000850
:1000900031410008BF010008BF010008BF0100088E
:1000A000BF010008BF010008BF010008BF01000830
:1000B000BF010008BF010008BF010008BF01000820
:1000C000BF010008BF010008BF010008BF01000810
:1000D000BF010008BF010008BF010008BF01000800
:1000E000BF01000839300008BF010008DFF80CD05C
:1000F00000F0A4F800480047B5430008E0180020CD
:10010000204B19680868B0E8F00F80F30988BFF346
:100110006F8F4FF0000080F311884EF00D0E704786
:100120000000000006480068006880F3088862B696
:1001300061B6BFF34F8FBFF36F8F00DF00BF00BF0B
:1001400008ED00E0EFF30980BFF36F8F0D4B1A68E5
:1001500020E9F00F106008B54FF0500080F31188CF
:1001600004F0C6FB4FF0000080F31188BDE80840A2
:1001700019680868B0E8F00F80F30988BFF36F8F43
:10018000704700BF5C000020EFF311804FF050017A
:1001900081F31188704780F311887047EFF3058071
:1001A000704700000648804706480047FEE7FEE724
:1001B000FEE7FEE7FEE7FEE7FEE7FEE7FEE7FEE717
:1001C0008D340008ED00000840EA01039B0703D0CE
:1001D00009E008C9121F08C0042AFAD203E011F886
:1001E000013B00F8013B521EF9D27047D2B201E048
:1001F00000F8012B491EFBD270470022F6E710B52C
:1002000013460A4604461946FFF7F0FF204610BD84
:1002100030B50B46014600202022012409E021FAD6
:1002200002F59D4205D303FA02F5491B04FA02F5D3
:100230002844151EA2F10102F1DC30BD064C074D29
:1002400006E0E06840F0010394E8070098471034A6
:10025000AC42F6D3FFF74EFF384D0008584D00086A
:1002600070B5044600688168C943C9071BD181681D
:1002700021F00101816000F0F9FC05460EE000BFAD
:1002800000F0F4FC401B022808D9042084F829005F
:10029000E06A40F00100E062012070BD20688068E3
:1002A000C043C007ECD0002070BD0000F8B50026A8
:1002B0000446009600688168C943C90728D0816850
:1002C00041F001018160134813490068B0FBF1F06F
:1002D00000E0401E00900028FBD100F0C7FC05465E
:1002E00011E000BF00F0C2FC401B02280BD9042023
:1002F00084F8290054F82C0F40F0010044F8040958
:1003000001202670F8BD20688068C043C007E9D18D
:100310000020F8BD2400002040420F0070B51948AD
:100320008CB0174901600025891501244561C0E999
:10033000021445604FF460210461C16100F02EFA9F
:10034000089408A90F48CDE9094500F071F9022683
:10035000CDE900644FF4E04002950790CDE90554E3
:10036000CDE903566946074800F026F80320CDE999
:1003700000066946034800F01FF80CB070BD00008D
:10038000002401408007002010B54FF400410748C9
:1003900000F063FC4FF48071054800F05EFC0548F6
:1003A000016841F00101016010BD0000000C014036
:1003B00000080140140401402DE9F8430023009394
:1003C00090F8284082689946012C32D0012480F8A8
:1003D00028404FF47874042572B34E680A691F27C9
:1003E00096423FD8961B94FAA4FCC6F10306BCFAC9
:1003F0008CFC06FB0CFC07FA0CF747F44018076866
:10040000D7F838C094FAA4F4B4FA84F466430C68BC
:100410002CEA080CB4404FF4401696FAA6F6B6FA49
:1004200086F6521EB24014434CEA040CC7F838C09A
:1004300027E00220BDE8F8834A68012A03D080F84B
:10044000295001231DE094FAA4F4B4FA84F40A6854
:1004500004EB4404A2400468A66B6FF31506324314
:10046000A2630EE0921B94FAA4F4C2F10302B4FA60
:1004700084F462439740026847F44016946BB44397
:10048000946302689468E443E40706D0946847F2F2
:100490000106B443CE69344394608A69012A06D1C7
:1004A000CA69B2F5E04F06D080F8295001234A69A5
:1004B000012A06D00AE00268546844F4806454605B
:1004C000F5E78A6912B380F8295001230A683824B5
:1004D00006684FF007080A2A1ED3F76894FAA4FCAE
:1004E000BCFA8CFC0A3A02FB0CFC08FA0CF894FAF1
:1004F000A4F4B4FA84F4D1F808C0624327EA0807E8
:100500000CFA02FC47EA0C07F7601CE0026854682A
:1005100044F480545460D9E7376994FAA4FCBCFAD7
:100520008CFC02FB0CFC08FA0CF894FAA4F4B4FA64
:1005300084F4D1F808C0624327EA08070CFA02FCE9
:1005400047EA0C0737610A68102A01D0112A04D142
:100550000268946844F4000494604A68012A10D048
:10056000022A16D0032A02681BD0146ACE686FF3E1
:100570000B04344314620A68102A19D0112A17D0C8
:1005800035E002685469CE686FF30B04344354615C
:10059000F1E702689469CE686FF30B043443946109
:1005A000E9E7D469CE686FF30B043443D461E2E722
:1005B000114C0268A24217D19468240217D494689F
:1005C00044F4000494600968102910D10B490C4AC6
:1005D0000968B1FBF2F101EB8101490000E0491E1D
:1005E00000910029FBD102E080F82950012380F816
:1005F000289018461EE70000002401402400002037
:1006000040420F000268136823F0040313600229BC
:100610000BD0032906D00068042901D0C06B7047B5
:10062000806C70470068406C70470068006C7047D1
:10063000F8B50025009590F82820AE46012A1ED076
:10064000012280F828204A681F244FF47873072A73
:1006500017D20668776B93FAA3FCBCFA8CFC521E87
:1006600002FB0CFC04FA0CF4A74393FAA3F3B3FACD
:1006700083F30C685A439440274377632DE00220AC
:10068000F8BD06680D2A14D2376B93FAA3FCBCFAA6
:100690008CFCD21F02FB0CFC04FA0CF4A74393FA67
:1006A000A3F3B3FA83F30C685A43944027433763A8
:1006B00013E0F76A93FAA3FCBCFA8CFC0D3A02FB38
:1006C0000CFC04FA0CF4A74393FAA3F3B3FA83F3F4
:1006D0000C685A4394402743F7620A68382307247A
:1006E00006680A2A14D3F76893FAA3FCBCFA8CFCB8
:1006F0000A3A02FB0CFC04FA0CF4A74393FAA3F3A6
:10070000B3FA83F38C685A4394402743F76012E0AE
:10071000376993FAA3FCBCFA8CFC02FB0CFC04FACC
:100720000CF4A74393FAA3F3B3FA83F38C685A4308
:100730009440274337610A68102A01D0112A1FD13B
:10074000114B02689A4217D193681B0218D4936820
:1007500043F4000393600968102911D10B490C4A36
:100760000968B1FBF2F101EB8101490000E0491E8B
:1007700000910029FBD103E0042180F82910012514
:1007800080F828E02846F8BD00240140240000201D
:1007900040420F000068C06C704700002DE9F04136
:1007A00004004FF0000504D094F82900002618B189
:1007B00007E00120BDE8F08184F82860204600F0C1
:1007C00071F82046FFF74CFD04270246012861D04E
:1007D000022084F82900E369616890FAA0F01943C7
:1007E000E368B0FA80F003FA00F00143A0684FF428
:1007F000807C604508D0012806D00020D4F814E0A1
:10080000BEF1010F02D00FE06046F7E763B94FF485
:10081000604EA3699EFAAEFEBEFA8EFE5B1E03FA20
:100820000EF3034343F400602368D3F804E02EF48E
:10083000694E4EEA000EC3F804E020688368DFF8D2
:100840005CE003EA0E030B438360A068604508D1B7
:100850004FF47000256990FAA0F0B0FA80F06D1E98
:1008600085402068C36A23F470032B43C362206869
:1008700080680B4B1840884204D1E662012084F85E
:10088000290009E084F82970E06A40F00100E06284
:10089000012201E084F8297010468BE7FDF7E1FFA3
:1008A000FE0F1FFF00B500680B4985B0884210D1CC
:1008B0000A48816941F4007181618069694600F4E8
:1008C000007004900E20009003200190044800F076
:1008D000E1F805B000BD0000002401400010024016
:1008E000000801402DE9F84300270D460446009713
:1008F00000F0BCF98146206841684FF00308C90543
:1009000003D4C06A10F4700F26D0022000F05EFC01
:1009100035490968B1FBF0F62068036933490B4299
:100920004FEA61014FEAA1121BD1C3684FEA611C73
:1009300013EA0C0F15D103690B4221D1C068104294
:100940001ED114201FE0681C06D045B300F08EF9BC
:10095000A0EB0900A84222D8206800688007F2D5E1
:1009600029E003690B4202D1C168114206D0026935
:100970001F490A4206D1C068084203D1542002E050
:10098000292000E0FC204643009812E0681C0DD0AE
:100990002DB100F06BF9A0EB0900A84206D984F84C
:1009A000298084F828700120BDE8F8830098401C55
:1009B0000090B042EAD32068016821F01201016082
:1009C00094F8290004280BD094F82900352807D082
:1009D00094F82900252805D05FF0150084F8290037
:1009E0000020E1E73520F9E7240000202449922483
:1009F0004992240010B5044690F82800012820D020
:100A0000012084F828002046FFF750FC0146002012
:100A100001292BD094F82920222A14D05FF0120249
:100A200084F8292084F82800E0622068026822F017
:100A30000202026020688268C2F34242072A04D0A0
:100A40000BE0022010BD3222EAE70A4A904209D1A7
:100A5000094A126812F4702F04D0826842F480129E
:100A6000826005E0826842F4A002F9E784F8280079
:100A7000084610BD002801400424014031B500F0B3
:100A8000F5F8044600F0F2F80099001B8842F9D30B
:100A900038BD00002DE9F84FDFF890A100220AF1DF
:100AA000040B144601274FF00F090BF1040E00BF91
:100AB0000B6807FA04F52B40AB4274D1DFF870C124
:100AC0004E68A6EB0C0866452BD00DDC032E34D007
:100AD00005DC36B3012E19D0022E2FD11BE0112ECA
:100AE00016D0122E2AD119E0B8F5881F19D006DCCD
:100AF000B8F5803F15D0B8F5801F1FD111E0B8F5CB
:100B0000001F0ED0B8F5041F18D10AE0CA6815E01E
:100B1000CA68121D12E0CA6808320FE0CA680C32B7
:100B20000CE08A682AB1012A4FF0080203D045611F
:100B300004E0042202E0056100E00022FF2B01D85E
:100B4000064601E000F104064FEA840501D9A5F14B
:100B50002005D6F800C009FA05F82CEA080C02FABC
:100B600005F54CEA050CC6F800C04D68ED0057D5F8
:100B7000304DAE6946F00106AE61AD6924F0030662
:100B800005F0010500952C4D06EB050CDCF808502E
:100B9000A6074FEA167809FA08F6B543274EB04281
:100BA00002D1002610E03BE0254EB04201D10126E3
:100BB0000AE0244EB04201D1022605E0224EB042A6
:100BC00001D1032600E0042606FA08F62E43CCF8ED
:100BD00008604D68DAF80060ED03554601D51E4304
:100BE00000E09E432E604D68DBF80060AD035D467B
:100BF00001D51E4300E09E432E604D68DEF8006084
:100C0000ED02754601D51E4300E09E432E604D68FF
:100C1000AD020E4D2E6801D51E4300E09E432E60AE
:100C2000641C102CFFF444AFBDE8F88F00040140B1
:100C300000001110001002400000014000080140B7
:100C4000000C014000100140001401400C04014060
:100C50008068084000D001207047C2684A40C260E6
:100C600070470AB1016170470904FBE70148006859
:100C7000704700009800002070B5040004D094F87C
:100C80003500002510B106E0012070BD84F8345015
:100C9000204600F05FF8022084F8350020680168E3
:100CA00021F00101016000F0FDFC014627482268A7
:100CB000B1FBF0F05060264A6368934206D94FF4C6
:100CC000967358434FF47A73B0FBF3F02368401CDB
:100CD000186260680123904208D84000B1FBF0F030
:100CE000C0F30B01042916D2042014E0A26852B10B
:100CF00000EBC00202EB0010B1FBF0F040F440400A
:100D0000010507D007E000EB4000B1FBF0F040F434
:100D10000040F5E718462168C861D4E90701084397
:100D200021680860D4E90310084321688860D4E989
:100D3000050108432168C8602068016841F001018D
:100D40000160A56384F83530002070BD40420F007B
:100D5000A086010000B500680C4985B0884212D118
:100D6000C02000901220019003200390694608489B
:100D7000FFF790FE0748C16941F40011C161C069E5
:100D800000F40010049005B000BD000000540040C5
:100D9000000C01400010024002480168491C01603B
:100DA0007047000098000020074810B5016841F026
:100DB00010010160032000F065F8002000F006F843
:100DC00000F016F8002010BD0020024010B50446C7
:100DD00000F04EFC4FF47A71B0FBF1F001F012FB21
:100DE00000222146501E00F02DF8002010BD00000A
:100DF0000C4808B5816941F001018161806900F00A
:100E000001000090032000F03DF800221146501E22
:100E100000F018F80448416821F0E06141F00071E9
:100E2000416008BD001002400000014000F01F02B8
:100E3000012191404009800000F1E020C0F800113C
:100E400070470000F0B40E4B1B680C46C3F302233E
:100E5000C3F10705042D00D90425191D072901D266
:100E6000002300E0DB1E012606FA05F1491E2140A1
:100E700099409E40761E16403143F0BC01F0ECBE16
:100E80000CED00E0064900F0070208684FF6FF038A
:100E9000184040EA0220034A1043086070470000EF
:100EA0000CED00E00000FA0500EB4112D0F81C0444
:100EB000D26B02F09FBC00EB4112D0F81C04D2F8B8
:100EC0001C2202F0E7BC70B50A460446090602F08F
:100ED0007F0003D504EB4011283103E004EB4211FD
:100EE00001F5027100258D700870D009487094F8E2
:100EF000E803012809D0012084F8E803206803F002
:100F000018F884F8E853002070BD022070BD70B559
:100F100004460D460E0601F07F0004EB401101D59A
:100F2000283101E001F502710870E80948700A6192
:100F3000CB7094F8E803012809D0012084F8E80375
:100F4000206802F0C6FE002084F8E80370BD02208D
:100F500070BD70B504460E4601F07F0004EB4011F1
:100F600001F5077100252CC101F81F5C01F8200D67
:100F700094F8E80301280AD0012084F8E8037006F9
:100F8000206803F031F884F8E853002070BD022097
:100F900070BD70B50D460446090605F07F0003D507
:100FA00004EB4011283103E004EB451101F5027117
:100FB00001228A700870E809487094F8E803012853
:100FC00007D084F8E823206802F0E8FF680602D022
:100FD00006E0022070BD04F57B71206802F0A7FFD7
:100FE000002084F8E80370BD70B504460E4601F099
:100FF0007F0004EB40113C3100252CC1012201F897
:101000001F2C01F8200D94F8E803012809D084F87A
:10101000E8237006206802F0E7FF84F8E853002018
:1010200070BD022070BD10B50446006803F086F85C
:10103000000402D5204601F01FFE206803F07EF870
:1010400040050CD5206830F8441F21F480610180F0
:10105000204600F06DF80021204600F07EF8206860
:1010600003F06CF8400405D5206830F8441F21F4E3
:1010700080410180206803F061F8800405D5206874
:1010800030F8441F21F400510180206803F056F825
:10109000C00413D5206830F8401F21F004010180FE
:1010A00021684FF43D40A1F84000204600F04DF883
:1010B000206830F8441F21F480510180206803F03B
:1010C0003DF800051AD5206830F8441F21F400616E
:1010D0000180206830F8401F41F00801018020683D
:1010E00030F8401F41F004010180206803F026F829
:1010F000C043C00402D5204600F04AF8206803F03F
:101100001DF8800508D5206830F8441F21F40071CF
:101110000180204600F01DF8206803F00FF8C0059C
:1011200005D5206830F8441F21F48071018010BD7E
:1011300010B504460121D0F81C0402F030FCD4F8AC
:101140001C04BDE8104002F0F9BBD0F81C0402F00A
:1011500014BCD0F81C0402F016BC10B5044690F87C
:10116000E80301280BD0012084F8E80384F8241058
:10117000206802F0F6FF002084F8E80310BD02208A
:1011800010BDD0F81C2400F57B71104602F011BC94
:1011900010B50446D0F81C0402F03FFCA0690028FA
:1011A00004D00348016841F00601016010BD000051
:1011B00010ED00E00120010291FAA1F1024AB1FA1A
:1011C00081F142F82100704700000E4210B533A4AF
:1011D00001461DCC86B08DE81D0034A0344C00685B
:1011E00004900020012931D0022948D010292BD1A8
:1011F00061682268D20127D54FF4701292FAA2F2E8
:1012000001F47010B2FA82F2D040C9031DF8000058
:1012100010D561684FF4003292FAA2F201F4003165
:10122000B2FA82F2D14004AA515C224AB2FBF1F137
:10123000484301E0204948436168490204D4400022
:101240005FF00301B0FBF1F006B010BD226AC2F3FB
:101250000121012903D1920701D5C803F4E702292E
:1012600005D1626A920702D549F64040ECE70329AE
:10127000EAD121688903E7D54FF22440E4E700F082
:1012800027FA61684FF4804292FAA2F201F44041D9
:10129000B2FA82F2D140491C4900D3E702030405A7
:1012A000060708090A0B0C0D0E0F101001020000B2
:1012B0000010024000127A0000093D002DE9F843B9
:1012C00004460078454DC00773D0E86940F080506F
:1012D000E861E869424E00F080500090306840F4C8
:1012E00080703060FFF7C2FC074604E0FFF7BEFCE9
:1012F000C01B642833D83068C005F7D5286AA18898
:1013000000F4407001F440710126814216D0286A31
:10131000320420F4407192FAA2F0B0FA80F0830017
:1013200030480344C3F8006492FAA2F2B2FA82F29F
:1013300000EB82000023C0F8003429626068B0F539
:10134000807F30D1FFF792FCB046074641F28839E2
:10135000022607E0FFF78AFCC11B494502D903209A
:10136000BDE8F88396FAA6F0B0FA80F040F04000AD
:10137000B8EB501F01D128680BE096FAA6F0B0FA3E
:1013800080F040F04000B6EB501F01D1286A00E029
:10139000686A96FAA6F2B2FA82F202F01F0208FA1E
:1013A00002F10842D6D0286A616820F440700843F0
:1013B00028622078800705D56868A16820F440403D
:1013C000084368602078C00605D56868E16820F4A5
:1013D0008000084368600020C2E70000001002405F
:1013E00000700040000042422DE9F047DFF878929B
:1013F00005460E46D9F80000022300F00707012039
:1014000041044206994C41F28838B74271D2D9F86A
:1014100000C02CF0070C4CEA060CC9F800C0D9F843
:10142000007007F00707B7426FD12E78B60705D5D1
:101430006668AF6826F0F0063E4366602E78F607D1
:1014400056D06E68012E0BD0022E1ED093FAA3F157
:10145000B1FA81F141F02001490924D0216823E04B
:1014600091FAA1F2B2FA82F242F02002520901D0BE
:10147000226800E0626A91FAA1F1B1FA81F101F00B
:101480001F018840024240D017E092FAA2F1B1FA5F
:1014900081F141F02001490901D0216800E0616A31
:1014A00092FAA2F202E0616A93FAA3F2B2FA82F22D
:1014B00002F01F029040014227D0606820F0030034
:1014C00030436060FFF7D2FB06466868012809D008
:1014D0000228474613D01EE0FFF7C8FB801BB84226
:1014E00001D992E047466068C0F381000128F3D13A
:1014F000A1E015E0FFF7BAFB801BB84273D8606823
:10150000C0F381000228F5D195E092E0FFF7AEFB31
:10151000801BB84279D8606810F00C0FF6D18AE0D1
:101520002F78BF0707D56768D5F808C027F0F00700
:1015300047EA0C0767602F78FF076DD06F68012FAF
:101540000BD0022F1ED093FAA3F1B1FA81F141F032
:101550002001490924D0216823E091FAA1F2B2FACE
:1015600082F242F02002520901D0226800E0626A51
:1015700091FAA1F1B1FA81F101F01F018840024214
:1015800057D017E092FAA2F1B1FA81F141F02001AF
:10159000490901D0216800E0616A92FAA2F202E0F2
:1015A000616A93FAA3F2B2FA82F202F01F0290404B
:1015B00001423ED0606820F0030038436060FFF7CE
:1015C00055FB07466868012807D0022811D01FE0A4
:1015D000FFF74CFBC11B414517D86068C0F3810081
:1015E0000128F5D118E010E0FFF740FBC11B414591
:1015F0000BD86068C0F381000228F5D10CE000BF71
:10160000FFF734FBC11B414502D90320BDE8F08739
:10161000606810F00C0FF3D1D9F8001021F0070129
:101620003143C9F80010D9F8000000F00700B042BB
:1016300001D00120EAE72878400705D56068E9680D
:1016400020F4E060084360602878000706D56068F1
:10165000296920F4605040EAC10060600020FFF773
:10166000B5FB0020D2E7000000200240001002403D
:1016700010B500F043F808494968F02292FAA2F246
:1016800001F0F001B2FA82F2D140044A515CC84044
:101690000349086010BD000000100240104D000812
:1016A0002400002010B5FFF7E3FF074949684FF415
:1016B000E06292FAA2F201F4E061B2FA82F2D14061
:1016C000024A515CC84010BD00100240104D000895
:1016D00010B5FFF7CDFF074949684FF4605292FA01
:1016E000A2F201F46051B2FA82F2D140024A515C96
:1016F000C84010BD00100240104D000810B519A3DD
:1017000085B00FCB8DE80F001AA01B4B006804902A
:101710005A681A4802F00C0104291DD008291BD16F
:101720004FF4701494FAA4F402F47011B4FA84F42F
:10173000E140D2031DF8011010D55A684FF4003370
:1017400093FAA3F302F40032B3FA83F3DA4004AB62
:101750009A5CB0FBF2F0484305B010BD084848431E
:10176000FAE7000002030405060708090A0B0C0D3E
:101770000E0F1010010200000010024000127A004B
:1017800000093D002DE9F84F05460078DFF85C952B
:10179000C0074FF0010429D0D9F804004E46C0F329
:1017A00081006704012807D07068C0F38100022817
:1017B0001DD17068C0031AD597FAA7F0B0FA80F06F
:1017C00040F02000400901D0306800E0706A97FACC
:1017D000A7F1B1FA81F101F01F0104FA01F1084209
:1017E00004D06868012801D0052879D184E03068E8
:1017F00020F480303060306820F480203060FFF7C3
:1018000035FA824641F2883806E000BFFFF72EFA2B
:10181000A0EB0A0141457DD897FAA7F0B0FA80F015
:1018200040F02000400901D0306800E0706A97FA6B
:10183000A7F1B1FA81F101F01F0104FA01F10842A8
:10184000E4D1306820F480303060686801280BD023
:10185000052811D0306820F480203060686858B3C3
:10186000FFF704FA824611E0306820F480203060EF
:10187000306840F48030F0E70520B070EEE700BF3C
:10188000FFF7F4F9A0EB0A014145C4D897FAA7F095
:10189000B0FA80F040F02000400901D0306800E04C
:1018A000706A97FAA7F1B1FA81F101F01F0104FA09
:1018B00001F10842E4D01FE0FFF7D8F9824605E0C5
:1018C000FFF7D4F9A0EB0A014145A4D897FAA7F095
:1018D000B0FA80F040F02000400902D0306801E00A
:1018E000BAE0706A97FAA7F1B1FA81F101F01F012D
:1018F00004FA01F10842E3D12878FD4F80074FF048
:10190000000A4FF0020634D5D9F80410484611F009
:101910000C0F00E0B0E108D04168C846C1F3810176
:10192000022927D14168C90324D496FAA6F1B1FA55
:1019300081F141F02001490901D0016800E0416ACC
:1019400096FAA6F2B2FA82F202F01F0204FA02F24A
:10195000114202D0296901297ED10168F82321F0C2
:10196000F80293FAA3F36969B3FA83F399400A433F
:1019700002604FE0286938B394FAA4F0B0FA80F01E
:1019800047F82040FFF772F9834605E0FFF76EF94C
:10199000A0EB0B00642898D896FAA6F0B0FA80F075
:1019A00040F020004009404601D0006800E0406A55
:1019B00096FAA6F1B1FA81F101F01F0104FA01F1E2
:1019C0000842E3D04046C8E794FAA4F1B1FA81F1A5
:1019D00047F821A0FFF74AF9834605E0FFF746F9EB
:1019E000A0EB0B006428D6D896FAA6F0B0FA80F0E7
:1019F00040F020004009404601D0006800E0406A05
:101A000096FAA6F1B1FA81F101F01F0104FA01F191
:101A10000842E3D12878000773D5A869D8B394FAAF
:101A2000A4F0B0FA80F007EB8000C0F88044FFF724
:101A30001DF9804606E000BFFFF718F9A0EB08008B
:101A40006428A8D896FAA6F0B0FA80F040F06000BA
:101A5000B4EB501F04D100E0D7E1D9F800000CE04E
:101A600096FAA6F0B0FA80F040F06000B6EB501F96
:101A7000484601D1006A00E0406A96FAA6F1B1FA40
:101A800081F101F01F0204FA02F10842D4D00120D2
:101A9000FEF7F4FF35E0FFE794FAA4F1B1FA81F123
:101AA00007EB8101C1F880A4FFF7E0F8804605E06C
:101AB000FFF7DCF8A0EB0800642894D896FAA6F0AB
:101AC000B0FA80F040F06000B4EB501F02D1D9F8BA
:101AD00000000CE096FAA6F0B0FA80F040F060004A
:101AE000B6EB501F484601D1006A00E0406A96FA02
:101AF000A6F1B1FA81F101F01F0204FA02F10842E5
:101B0000D6D1287840077DD5D9F81C1041F08051F6
:101B1000C9F81C10D9F81C00DFF8D8B100F08050CB
:101B20000090DBF8001041F48071CBF80010FFF753
:101B30009DF8804606E000BFFFF798F8A0EB08008C
:101B40006428BAD8DBF80000C005F5D594FAA4F1F2
:101B5000B1FA81F107EB8101C1F800A44FF0040B49
:101B60009BFAABF1B1FA81F107EB8101C1F800A456
:101B7000FFF77CF8009007E0FFF778F80099411A2A
:101B800041F28830814277D896FAA6F0B0FA80F018
:101B900040F04000B4EB501F02D1D9F800000CE037
:101BA00096FAA6F0B0FA80F040F04000B6EB501F75
:101BB000484601D1006A00E0406A96FAA6F1B1FAFF
:101BC00081F101F01F0104FA01F1A0460842D3D1CE
:101BD000E868E0B1012850462AD094FAA4F1B1FA9D
:101BE00081F107EB8101C1F800049BFAABF000BF63
:101BF000B0FA80F007EB8000C0F80044E8680128E4
:101C000021D000E083E0FFF731F8834656E094FAF4
:101C1000A4F1B1FA81F107EB8101C1F800A49BFAAC
:101C2000ABF1B1FA81F107EB8101C1F800A4E5E75E
:101C30009BFAABF1B1FA81F107EB8101C1F8000425
:101C400094FAA4F0D4E7FFF711F8834608E000BF48
:101C5000FFF70CF8A0EB0B0141F2883081420BD862
:101C600096FAA6F0B0FA80F040F04000B8EB501FB2
:101C700003D1D9F800000DE09DE096FAA6F0B0FA85
:101C800080F040F04000B6EB501F484601D1006A9A
:101C900000E0406A96FAA6F1B1FA81F101F01F0264
:101CA00008FA02F10842D3D031E000BFFEF7DEFFB0
:101CB000A0EB0B0141F2883081427CD896FAA6F065
:101CC000B0FA80F040F04000B8EB501F02D1D9F8D4
:101CD000000012E096FAA6F0B0FA80F040F0400062
:101CE000B6EB501F484607D1006A06E000100240DC
:101CF0000000424200700040406A96FAA6F1B1FA34
:101D000081F101F01F0208FA02F10842CED1E86920
:101D1000B0B3D9F804104E46C1F38101022974D042
:101D200002284FF080714FF0007950460AD091FAA6
:101D3000A1F1B1FA81F147F82100FEF797FF0746BC
:101D40004D466BE08A4691FAA1F1B1FA81F1BB46AA
:101D500047F82100FEF78AFF80464F4606E000BFA5
:101D6000FEF784FFA0EB0800642854D897FAA7F088
:101D7000B0FA80F040F02000400902D0306801E065
:101D800061E0706A97FAA7F1B1FA81F101F01F01E1
:101D900004FA01F10842E3D1286AB0F5803F05D189
:101DA0007068A96820F4003008437060D5E9080124
:101DB0000843716800E02EE021F47411084370605C
:101DC0009AFAAAF0B0FA80F04BF82040FEF74EFFE6
:101DD000054604E0FEF74AFF401B64281BD897FA2B
:101DE000A7F0B0FA80F040F02000400901D0306840
:101DF00000E0706A97FAA7F1B1FA81F101F01F01D2
:101E000004FA01F10842E5D01DE01EE0FEF72EFFC6
:101E1000C01B642802D90320BDE8F88F95FAA5F00D
:101E2000B0FA80F040F02000400901D0306800E0B6
:101E3000706A95FAA5F1B1FA81F101F01F0104FA77
:101E400001F10842E2D10020E6E70120E4E7704713
:101E500070B51D460C4660B35CB301F0B9F94FF4A0
:101E60006161B0FBF1F21823B2FBF3F603FB16221B
:101E7000B0FBF1F301FB13063C23B6FBF3F6227033
:101E80006670B0FBF1F601FB1600B0FBF3F103FB4B
:101E90001100A0705DB1104601F0D9F82070607893
:101EA00001F0D5F86070A07801F0D1F8A0700020A2
:101EB00070BD012070BD407C70472DE9F047914610
:101EC0000C465FEA00084AD084B3D8F800004068A6
:101ED000400744D4404601F082F94FF46162054660
:101EE000B0FBF2F1B0FBF2F302FB13503C23B0FB6A
:101EF000F3F0B5FBF2F6607002FB1650B0FBF3F2A4
:101F000003FB1200A070182931D31820B1FBF0F7A1
:101F1000B1FBF0F200FB12102070404601F058F9BE
:101F2000411C04D0A84202D9461B02E017E04FF042
:101F3000FF36A7EB071000EB4000C0EB001005EBED
:101F4000C0152946404601F099F940B9701C01D0EE
:101F5000711900E03146404601F07CF910B10120D2
:101F6000BDE8F0873946404601F07CF800E021707A
:101F7000B9F1000F0BD0207801F069F8207060787B
:101F800001F065F86070A07801F061F8A0700020A1
:101F9000E6E7000070B5040003D0607C002610B1B5
:101FA00005E0012070BD2674204600F043F80220B1
:101FB0006074204600F08CF9042578BB204601F0BF
:101FC000A8F858BB2068416821F007014160A0686B
:101FD00020B11748016821F0010101601448001F79
:101FE0000168A26821F46071114301606068411CBE
:101FF00004D10120FFF7EAF880B1401E21688A6809
:1020000022F00F0242EA10428A602168CA6860F337
:102010000F02CA60204601F097F808B16574C0E766
:10202000E67301206073A0736074002070BD00002F
:10203000306C004008B500680C49884215D1FFF7A4
:10204000B9F80B48C16941F00061C161C069094A32
:1020500000F0006000900120C10391FAA1F1B1FAF3
:1020600081F102EB8101C1F8000408BD00280040A5
:1020700000100240000042422DE9F8434FF00006F4
:1020800017460D46040000960FD075B1207C01283C
:102090000ED04FF0010984F81090022060740022E5
:1020A00069462046FFF709FF20B10120BDE8F8830B
:1020B0000220FBE79DF800004FF4616148439DF862
:1020C0000110C1EB011100EB81009DF8021000EB43
:1020D00001082878E7B100F0B1FF4FF4616100FB1F
:1020E00001F7687800F0AAFFC0EB001007EB80074B
:1020F000A87800F0A3FF3918414501D216480144E1
:10210000204601F0A7F870B1042060742674CCE773
:102110004FF4616148436978C1EB011100EB810024
:10212000A9780144E8E721686FF002004860206860
:10213000016841F0020101600848016841F4003182
:10214000016006480830016841F40031016084F8FC
:10215000119026740020A9E780510100000401407D
:102160002DE9F0410D4604003BD0C5B3207C012889
:102170003AD04FF0010884F8108002206074E878AB
:1021800072B300F05BFFE073687800F057FF607394
:10219000A87800F053FFA073C2B2617BE07B01F02E
:1021A0002EF820732870204601F019F84FF4616171
:1021B000B0FBF1F1002518292DD91822B1FBF2F15D
:1021C000A1EB011101EB4101C1EB011100EBC116C3
:1021D0003146204601F052F80427C8B90BE000E070
:1021E00004E00120BDE8F0810220FBE7E07368789D
:1021F0006073A878CFE7204600F0EAFF411C0AD0C0
:10220000B04208D206490144204601F023F810B13B
:1022100067742574E5E784F8118025740020E1E7F0
:10222000805101002DE9F0410D46040024D01DB37A
:10223000207C012823D04FF0010884F81080022070
:1022400060742878EAB100F0F9FE4FF4616100FB98
:1022500001F6687800F0F2FEC0EB001006EB800695
:10226000A87800F0EBFE35182946204601F006F864
:102270000026042710BB0FE00120BDE8F0810220FA
:10228000FBE74FF4616148436978C1EB011100EB52
:102290008100A9784518E7E72068416821F0050129
:1022A0004160204600F094FF411C0AD0A84208D2A9
:1022B00006490144204600F0CDFF10B16774267432
:1022C000DAE784F8118026740020D6E780510100F7
:1022D00070B504000AD02068416821F0080141600F
:1022E000FEF7C4FC05464FF47A7608E0012070BD85
:1022F000FEF7BCFC401BB04201D9032070BD206832
:1023000040680007F4D5002070BD000010B504003F
:1023100003D094F8510010B104E0012010BD204614
:1023200000F038F8022084F851002068016821F09C
:1023300040010160D4E901010843D4E903121143CB
:10234000084361690843218B01F400710843E16986
:102350000843216A0843A16A084321680860A0690C
:10236000042101EA1040616A08432168486021683D
:10237000E06A08612068C16921F40061C161044913
:10238000002008706065012084F85100002010BD15
:102390009400002010B50068114986B088421CD115
:1023A0001048816941F48051816180690E4C00F4CC
:1023B00080500490A0200090022001900320039000
:1023C00069462046FEF766FB00214020CDE900016A
:1023D000029169462046FEF75DFB06B010BD000085
:1023E0000030014000100240000801404FF0E021A1
:1023F0000428086903D020F004000861704740F009
:102400000400FAE710B5401EB0F1807F01D301202F
:1024100010BD4FF0E02460610F21601700F01CFC3C
:102420000020A06107202061002010BD30B590F889
:102430003820012A19D0012200F8382F02234370D6
:10244000D1E900342343D1E902452C4323430C69ED
:1024500023434C69896923430B4350F8381C4B6470
:10246000427000210170084630BD022030BD30B5F9
:1024700090F83820012A20D0012280F83820022349
:1024800080F8393003685C6824F070045C6003688D
:102490005C680D682C435C6003689C6824F08004D1
:1024A0009C6003689C6849680C439C6080F83920F4
:1024B000002180F83810084630BD022030BD70B5CC
:1024C000044690F8380001280DD0012584F83850D2
:1024D000022084F8390042B1042A0AD0082A0CD01C
:1024E0000C2A11D10DE0022070BD206801F024F803
:1024F0000AE0206801F048F806E0206801F070F872
:1025000002E0206801F098F884F83950002084F83F
:10251000380070BD10B5040003D094F8390010B134
:1025200007E0012010BD002084F83800204600F0AC
:102530000CF8022084F83900211D206800F0CAFF41
:10254000012084F83900002010BD704770B50446A2
:1025500090F838000D4601280DD0012684F8386027
:10256000022084F8390042B1042A18D0082A2AD05F
:102570000C2A4DD139E0022070BD206800F0DCFF4C
:102580002068816941F0080181612068816921F03A
:1025900004018161206881692A69114311E0206882
:1025A00000F0F2FF2068816941F4006181612068D8
:1025B000816921F480618161206881692A6941EA29
:1025C0000221816124E0206801F00AF82068C169D5
:1025D00041F00801C1612068C16921F00401C161B5
:1025E0002068C1692A69114311E0206801F024F8CC
:1025F0002068C16941F40061C1612068C16921F4AA
:102600008061C1612068C1692A6941EA0221C16112
:1026100084F83960002084F8380070BD10B50400DB
:1026200003D094F8390010B107E0012010BD00205C
:1026300084F83800204600F00DF8022084F83900B4
:10264000211D206800F046FF012084F83900002099
:1026500010BD000010B50068104986B088421AD13C
:102660000F48816941F4006181618069022400F4AE
:10267000006004904FF44040CDE9000469460948E9
:102680000394FEF707FAE001CDE900046946064825
:102690000394FEF7FFF906B010BD0000002C0140C6
:1026A00000100240000C01400008014009480849A0
:1026B0004FF4804201600849416000218160C0E917
:1026C000031241618161C1610162FEF7D5BA000068
:1026D00000540040B0070020A086010000290168D6
:1026E00002D041F4806102E04FF6FF3211400160F8
:1026F0007047024600205369926943EA024323F07F
:102700007F42914300D1012070470029016802D027
:1027100041F4807102E04FF6FF62114001607047A2
:102720000029016802D041F4007102E04FF6FF5227
:102730001140016070470069C0B2704712B141F0AA
:10274000010101E001F0FE01016170470161704784
:102750002DE9F0412F4C064601212046FFF7BEFF30
:1027600001212046FFF7D1FF2B4D20462946FFF7D8
:10277000C0FF0028F9D00022D3212046FFF7DEFF5A
:10278000264F20463946FFF7B4FF0028F9D03146DE
:102790002046FFF7DBFF214EB61C31462046FFF7EF
:1027A000A8FF0028F9D001212046FFF7AEFF2946F7
:1027B0002046FFF79EFF0028F9D00122D3212046B2
:1027C000FFF7BCFF144E144D761C3F3531462046B2
:1027D000FFF78FFF0028F9D029462046FFF789FF31
:1027E0000028F9D02046FFF7A6FF06020021204668
:1027F000FFF774FF01212046FFF792FF294620468C
:10280000FFF777FF0028F9D02046FFF794FF304309
:10281000BDE8F08100540040010003008200070081
:1028200010B58EB000F0D8F884B200F011F88DF831
:10283000000000F0FE0000F0EDF8224602A168461C
:1028400001F0E4FC0EB010BD783D2025640A0000C4
:1028500070B52A4C01212046FFF740FF0121204698
:10286000FFF753FF264D20462946FFF742FF002879
:10287000F9D0002290212046FFF760FF214E20462C
:102880003146FFF736FF0028F9D001212046FFF737
:102890005DFF1C4EB61C31462046FFF72AFF00287C
:1028A000F9D001212046FFF730FF29462046FFF7E7
:1028B00020FF0028F9D0012290212046FFF73EFF9B
:1028C0000F4D6D1C29462046FFF713FF0028F9D055
:1028D00000212046FFF702FF01212046FFF720FFDD
:1028E000074D3F3529462046FFF703FF0028F9D062
:1028F0002046BDE87040FFF71EBF000000540040B6
:1029000001000300820007002DE9F0412F4C06462C
:1029100001212046FFF7E2FE01212046FFF7F5FEE8
:102920002B4D20462946FFF7E4FE0028F9D000226F
:1029300090212046FFF702FF264F20463946FFF739
:10294000D8FE0028F9D031462046FFF7FFFE214E81
:10295000B61C31462046FFF7CCFE0028F9D00121F5
:102960002046FFF7D2FE29462046FFF7C2FE002888
:10297000F9D0012290212046FFF7E0FE144E144DBD
:10298000761C3F3531462046FFF7B3FE0028F9D0CC
:1029900029462046FFF7ADFE0028F9D02046FFF774
:1029A000CAFE060200212046FFF798FE01212046BC
:1029B000FFF7B6FE29462046FFF79BFE0028F9D018
:1029C0002046FFF7B8FE3043BDE8F08100540040D8
:1029D000010003008200070010B50020FFF794FFFC
:1029E000C009C10500F001010AD500F0FE00C04396
:1029F0004942401CC0F3450001EB8101404203E025
:102A000001EB8101C0F3460000EB800001EB4000C8
:102A100010BD000070B51C4C054601212046FFF793
:102A20005DFE01212046FFF770FE184E204631461C
:102A3000FFF75FFE0028F9D0002290212046FFF723
:102A40007DFE134E20463146FFF753FE0028F9D095
:102A500001212046FFF77AFE0D4EB61C3146204676
:102A6000FFF747FE0028F9D029462046FFF76EFE03
:102A700031462046FFF73DFE0028F9D02046BDE84C
:102A800070400121FFF74CBE0054004001000300DC
:102A9000820007002DE9F0433B4885B0816941F091
:102AA00004018161816901F004010491816941F0AF
:102AB00008018161816901F008010491816941F097
:102AC00010018161816901F010010491816941F077
:102AD000200181618069012400F020000490102011
:102AE000CDE90004DFF8A490022569460395484625
:102AF000FDF7D0FF2702CDE90074694648460395EB
:102B0000FDF7C8FF002239464846FEF7AAF840F60E
:102B10000140CDE90004DFF878806946039540461E
:102B2000FDF7B8FF0026CDE90056694640460296FB
:102B3000FDF7B0FF4FF4815000901648CDE9010633
:102B400069464046FDF7A6FF13486946CDE90040B7
:102B500002964846FDF79EFF4FF44040CDE9000441
:102B6000694603954046FDF795FFCDE90074694637
:102B700048460395FDF78EFF012239464846FEF789
:102B800070F805B0BDE8F083001002400008014075
:102B9000000C014000001210000021100C480B49ED
:102BA0004FF4007201604FF4827141600021816036
:102BB000C1600161C0E905121022C0E9072141622C
:102BC00081620A21C162FFF7A1BB00000030014011
:102BD000D806002030B51F4891B01D490024C0E937
:102BE00000148460C46004614461FFF717FD194854
:102BF000FFF790FC0E940EA916480F94FFF737FCD0
:102C00000794089409944FF400500A94CDE90B40BE
:102C100007A910480D94FFF709FC6025CDE9005481
:102C2000029403940494059400226946094806948A
:102C3000FFF78CFC0422694606480094FFF73FFC2E
:102C40000822694603480095FFF780FC11B030BDAB
:102C5000002C0140300700200907090E002806DA81
:102C600000F00F0000F1E02080F8141D704700F123
:102C7000E02080F8001470472DE9FC5F4FF0000859
:102C80000446ADF80480ADF8008048F60F7B4FF0A5
:102C900002094FF4806692E1BDF8041011F00F07AD
:102CA0002BD030F82710ADF80010BDF80010090443
:102CB00078D530F8272040F68F710A4020F8272079
:102CC00004EB471595F8120205F5027500282068F7
:102CD00069D0297830F8212052047DD5B0F85030E1
:102CE00009EBC101194406EB4101415AC1F3090145
:102CF0005FEA010A71D0EA88D0E0BDF80410C90685
:102D00002AD4018801EA0B010180206804F128051A
:102D1000B0F850202B7809EBC301114406EB4101B8
:102D2000405AC0F309006064E16B0844E06300218D
:102D30002046FEF7B9F894F824000028ABD0A86923
:102D40000028A8D194F82400216840F08000A1F860
:102D50004C0084F8248032E1018804F50275ADF856
:102D60000010BDF8001009051ED5B0F850302978C4
:102D7000062202EBC101194406EB4101405A04F559
:102D80007B71C0F30903EB61AA88206801F0DAF9CE
:102D90002068018840F68F72114001802046FEF7BE
:102DA000F0F90CE1A0E055E0BDF800100904D2D51F
:102DB000028840F68F710A4002802068B0F85030D7
:102DC0002978062202EBC101194406EB4101405A61
:102DD00083059B0DEB6101E051E063E008D0AA8818
:102DE0006969206801F0AEF9E969686908446861B9
:102DF00000212046FEF75FF82068B0F85010891DCA
:102E000006EB4101014428693E280CD9C0F34F125A
:102E1000C00601D1521E92B24FF6FF7000EA822026
:102E200040F4004009E0C0F34F02C00701D0521C3B
:102E300092B24FF6FF7000EA82200860216808888D
:102E40004BF68F72104080F4405048F280021043DD
:102E50000880B4E0B0F850202B78062101EBC301C4
:102E6000114406EB4101415AC1F309015FEA010A2D
:102E700024D0AA885346696901F064F91EE0B0F8CD
:102E80005020062303EBC101114406EB4101415AD6
:102E9000C1F309015FEA010A04D02A89534669692E
:102EA00001F050F92978206830F8213048F68F7207
:102EB000134048F2C002134320F82130E96901EBC6
:102EC0000A00E861696901EB0A026A61AB6913B142
:102ED0002869504504D929782046FDF7ECFF03E026
:102EE00029782046FEF735F8BDF80000000666D5C3
:102EF000206804EB471530F8271001EA0B0120F891
:102F0000271095F8320028350028206812D029783B
:102F100030F82120B0F8503052061ED509EBC1011F
:102F2000194406EB4101405A83059B0DEB6124D007
:102F3000EA881EE0B0F850302A7809EBC201194443
:102F400006EB4101405A83059B0DEB6121D0AA8815
:102F50006969206801F00BF91BE0062202EBC10150
:102F6000194406EB4101405A83059B0DEB6104D0E7
:102F70002A896969206801F0FAF82978206830F810
:102F8000212048F68F731A404CF280031A4320F830
:102F900021202068B0F850202B7809EBC3011144A0
:102FA00006EB4101405AC0F30900E86169690A185B
:102FB0006A612978AB69204663B1FEF715F820688D
:102FC000B0F84410ADF8041009043FF565AE0020D8
:102FD000BDE8FC9FFDF768FFF1E700001CB5134C4E
:102FE0002068016889071BD54068800718D5012330
:102FF00069462046019AFEF72BFF9DF80200012248
:103000000A308DF8020069462046FFF735F84FF484
:1030100080410748FDF721FE21686FF002004860FB
:1030200004494FF4003008601CBD00006C0700200C
:10303000000C014014040140FFF7D0BF010901EB6F
:10304000810100F00F0000EB4100C0B27047002189
:1030500002E00A38C0B2491C0A28FAD2090740EA3D
:10306000116070472DE9F04104460025C07B627B6A
:10307000A37B42E0012A16D0032A14D0052A12D0DD
:10308000072A10D0082A0ED00A2A0CD00C2A0AD0FF
:10309000042A10D0062A0ED0092A0CD00B2A0AD0F6
:1030A000022A0DD028E01F2B0CD30C2A05D10122B7
:1030B0001346401C20E01E2B04D30123521C1BE0AE
:1030C0001C2B02D203F1010316E011D183B29E073B
:1030D00010D16426B3FBF6F706FB173636B94FF46A
:1030E000C876B3FBF6F706FB17331BB91D2303E0C5
:1030F0001D2B01D1032201236D1C8D42BAD3D1B205
:10310000E0736173DAB2A27300F079F82073BDE85E
:10311000F08170B50446FDF7A9FD05464FF47A76B7
:1031200006E0FDF7A3FD401BB04201D9032070BDAE
:10313000206840688006F4D52068416841F010019D
:103140004160002070BD000070B504460068416811
:1031500021F010014160FDF789FD05464FF47A76B4
:1031600007E000BFFDF782FD401BB04201D90320FC
:1031700070BD206840688006F4D5002070BD00F066
:1031800001B8000010B5104C20680168C90719D0BB
:103190004168C90716D04068400708D52046FEF7A9
:1031A00056FE21686FF004004860042005E001220B
:1031B00006490548FEF781FE0120607421686FF022
:1031C0000100486010BD00006C07002018000020BE
:1031D0000168086A496A89B241EA0040704700689C
:1031E00081698AB2C1698BB2816989B28A4203D08E
:1031F000C06961F31F40704743EA02407047F0B571
:103200006424C1EBC1030927A500072603EB0113C2
:103210000329B3FBF7F100F5FA60114401440AD227
:10322000401EB0FBF4F201EB9001B0FBF5F0891AFF
:103230000844001D08E0B0FBF4F201EB9001B0FB84
:10324000F5F0891A0844801CB0FBF6F106FB11006A
:10325000C0B2F0BD70B50D4606460024FFF759FF19
:1032600048B93168280C08623168A8B24862304613
:10327000FFF76AFF00B10124204670BD70B50D460E
:1032800006460024FFF745FF48B93168280C8861DD
:103290003168A8B2C8613046FFF756FF00B101247B
:1032A000204670BD7FB52348214E4FF0FF31C0E965
:1032B0000061B11501258160057345738573002494
:1032C000C473FEF767FE1B48FEF7F5FD012828D101
:1032D0008DF80C408DF80D408DF80E40012203A9A9
:1032E0001448FEF79FFF8DF80A508DF809508DF8AD
:1032F00008508DF80B40012202A90E48FEF730FF5E
:103300008DF800408DF801400A208DF8020001225E
:10331000694608480194FEF7AFFE306840F00100AE
:1033200030600320FDF782FD2920FDF77FFD7FBD82
:10333000002800406C0700201FB54FF440400126D4
:10334000CDE90006DFF8A080022700246946039734
:103350004046FDF79FFB3502CDE90056234E6946F6
:1033600003973046FDF796FB012229463046FDF7CC
:1033700078FC012210213046FDF773FC4746DFF848
:1033800070904FF4804B4FF48058AA4600F006FF2F
:10339000FFF746FA642001F04DF80F20FFF7D8F947
:1033A000A9F80000454641463846FDF751FC012882
:1033B0000AD14CB959463846FDF74FFC0122514617
:1033C0003046FDF74EFC012429463846FDF740FC07
:1033D0000028DBD1012CD9D10024224651463046A9
:1033E000FDF73FFCD2E70000000C0140000801405F
:1033F0000400002010B5FDF7CFFC01F027F80648C7
:103400000168491C016005480168002902D0016873
:10341000491E016010BD00001000002014000020B3
:1034200030B593B00920009001200024CDE90104BB
:103430000225CDE90605000408904FF4E01009903C
:103440006846FEF79FF90520CDE90A056802CDE937
:103450000C4002210AA80E94FDF7C6FF13200F901E
:10346000280210908001CDE911040FA8FDF726FF76
:10347000FEF7FEF84FF47A71B0FBF1F0FEF7C2FFF1
:103480000420FEF7B3FF13B030BD00000D48016803
:1034900041F00101016041680B4A1140416001683F
:1034A0000A4A11400160016821F4802101604168ED
:1034B00021F4FE0141604FF41F0181600449C00303
:1034C00008607047001002400000FFF8FFFFF6FEA2
:1034D00008ED00E0F0B50268144B154C154D4FF0A7
:1034E0008047984205D0B84203D0A04201D0A842FC
:1034F00003D122F070064A683243984205D0B842A0
:1035000003D0A04201D0A84203D122F44074CA687B
:10351000224302608A68C2620A688262984201D1CC
:103520000969016301214161F0BD0000002C0140E7
:10353000000400400008004030B5026A22F0010299
:103540000262026A4368846924F073050C682C43A4
:1035500022F002058A682A430A4DA8420BD122F0C4
:103560000805CA6823F440732A434D6922F0040217
:103570001D438B692B434360846149684163026248
:1035800030BD0000002C014030B5026A22F010026C
:103590000262026A436884690D6824F4E64444EADE
:1035A00005248D6822F0200242EA05120B4DA84244
:1035B0000ED1CD6822F0800242EA05124D6923F453
:1035C000406343EA85038D6922F0400243EA8503A4
:1035D0004360846149688163026230BD002C014010
:1035E00030B5026A22F480720262036A4268C469DA
:1035F00023F4007324F073050C682C438D6843EAB0
:1036000005230C4DA8420ED1CD6823F4006343EA94
:1036100005234D6922F4405242EA05128D6923F4D4
:10362000806342EA05124260C4614968C163036273
:1036300030BD0000002C014030B5026A22F48052F7
:103640000262046A4268C3690D6823F4E64343EAF0
:1036500005238D6824F4005444EA0534064DA8423D
:1036600004D14D6922F4804242EA85124260C3616E
:1036700049680164046230BD002C014010B5D0F8E7
:10368000142252689047002010BD134610B50A4618
:10369000002100F04CF9002010BD134610B50A4679
:1036A000002100F0C3F9002010BD10B504468021B0
:1036B00000F0ACF92046BDE81040002100F0A6B9AA
:1036C00010B505210023C0F8F4111A46194600F080
:1036D0002EF9002010BD10B502238261C0F8F4312C
:1036E000C26113460A46002100F0A0F9002010BD77
:1036F00010B504210023C0F8F4111A46194600F051
:1037000095F9002010BDF8B5044648880D46010A19
:1037100008294BD2DFE801F04A0409174A4A404819
:10372000D4F81012207C0A6832E0207C022600289F
:10373000D4F8140205D0C16A68468847014646702D
:1037400041E0816AF8E7C0B206282FD2DFE800F036
:1037500003080D12171CD4F81012207C4A6817E0D9
:10376000D4F81012207C8A6812E0D4F81012207C61
:10377000CA680DE0D4F81012207C0A6908E0D4F879
:103780001012207C4A6903E0D4F81012207C8A6968
:1037900069469047014616E0207C38B9D4F81402F7
:1037A000416B68468847F5E7207C20B129462046D2
:1037B000FFF77BFFF8BDD4F81402016B6846884719
:1037C000014607204870BDF800000028F2D0EA88C2
:1037D000002AEFD0824200D90246ADF800202046F0
:1037E000FFF779FFF8BD10B5D0F82002FDF76BFBAD
:1037F000002010BD2DE9F0411746044641B1D4F830
:1038000014024269EAB394F8FC0103283DD03EE07B
:10381000D4F8F411002504F1140002292CD1D0E9C8
:1038200002639E4207D9F31A83609AB23946204652
:10383000FFF733FF20E04068B0FBF3F103FB110119
:1038400069B998420BD3D4F8F811884207D2002204
:1038500011462046FFF721FFC4F8F8510CE0D4F8D8
:103860001402C16829B194F8FC01032801D1204653
:1038700088472046FFF724FF94F80002012806D16C
:1038800000E004E084F8005201E020469047002068
:10389000BDE8F08170B51546044641B1D4F8140274
:1038A00082693AB394F8FC01032824D025E0D4F8C7
:1038B000F41104F5827003291FD1D0E902218A4254
:1038C0000BD9531A83600846834200D303469AB249
:1038D00029462046FFF7D9FE0FE0D4F8140201690B
:1038E00029B194F8FC01032801D1204688472046DD
:1038F000FFF7FEFE01E020469047002070BD0A065B
:10390000D0F8200201F07F0100EB411002D590F8C1
:103910002A00704790F80A02704710B51C461346FB
:10392000D0F820022246FDF7F2FA002010BD10B5B3
:10393000D0F82002FDF70DFB002010BD70B500226D
:10394000044640231146FFF7E8FF40252B4600229E
:1039500080212046C4F81051FFF7DFFF01202562C7
:1039600084F8FC01D4F8180228B1D4F814022179A3
:10397000426820469047002070BD90F8FD1180F805
:10398000FC110020704710B590F8FC11032904D1F8
:10399000D0F81412C96901B18847002010BD017424
:1039A0000020704710B5D0F82002FDF7D6FB0020AC
:1039B00010BD70B5044600F50270054600F03DF8F4
:1039C0000120C4F8F401B4F80E02C4F8F80194F828
:1039D000080210F01F010AD001290DD0022910D0D1
:1039E00000F08001204600F011F8002070BD29464B
:1039F000204600F07BF8F8E72946204600F04FF912
:103A0000F3E72946204600F0EAF8EEE710B5D0F8D3
:103A10002002FDF7BEFA002010BD90F8FC1180F8DE
:103A2000FD11042180F8FC110020704710B5D0F87A
:103A30002002FDF7D9FA002010BD0A7802704A78FA
:103A400042708A78CB7802EB032242800A794B7964
:103A500002EB032282808A79C97902EB0121C180BD
:103A6000704710B5D0F8142202241AB1126890479A
:103A700000B90024204610BD70B50E461A4D897855
:103A800004462970012928D894F8FC01022802D0A4
:103A9000032822D105E099B10320616084F8FC017C
:103AA00009E091B1606888420AD0C1B22046FFF7B0
:103AB000E5FD297861602046FFF7D3FF02280CD08E
:103AC0002046BDE87040FFF713BE022084F8FC01D9
:103AD00020466160FFF7D2FDF2E731462046BDE89F
:103AE0007040FFF7E2BD0000000000202DE9F0412A
:103AF00000264B78012532460A2B43D2DFE803F03B
:103B00003C584251420805422A27FFF7FCFD63E07A
:103B100004468888C8B9C888B8B9887800F07F0793
:103B200094F8FC01032810D084F8FE713946204631
:103B3000FFF738FF2046FFF7DBFD1FB1022084F8B6
:103B4000FC0149E084F8FC5146E020461AE0FFF70A
:103B500093FF41E0CB88012B14D190F8FC31022B6C
:103B600002D0032B0ED104E08260012200F1080193
:103B700014E00122011D11E090F8FC21022A04D07A
:103B8000032A02D0FFF791FD26E0C560D0F80412A9
:103B900009B10321C160022200F10C01FFF79BFD76
:103BA0001AE004464888012816D1C4F804520BE0F4
:103BB000044690F8FC01022801D00328C5D14888AA
:103BC000012809D1C4F80422D4F8140282682046DE
:103BD00090472046FFF78CFD3046BDE8F08170B578
:103BE0000D46044609796878002678B3012816D076
:103BF000032836D194F8FC01022817D003282CD1D1
:103C0000688828B921B1802902D02046FFF7FEFE3E
:103C1000D4F81402294682682046904712E094F8AE
:103C2000FC01022802D0032817D103E0C9B1802982
:103C30001BD116E06888A0B9480603D02046FFF7DC
:103C4000D2FDE5E72046FFF753FD0AE0FFE794F8D1
:103C5000FC01022807D003280BD029462046FFF795
:103C600024FD304670BD4806FBD02046FFF7CEFE4F
:103C7000F7E7080601F07F0004EB001501D51435C5
:103C800001E005F582752046FFF739FE00B10120FD
:103C90002860022229462046FFF71DFDE1E770B5A6
:103CA000054690F8FC010C4603280DD12079012827
:103CB0000AD8D5F81402826828469047E08830B9BF
:103CC0002846FFF715FD02E02846FFF7EEFC00202E
:103CD00070BD2DE9F047CC780A7848F68F1334B1DF
:103CE000012C6DD0022C08D0032C13D10BE030F83E
:103CF00022401C4044F400730AE030F822401C408B
:103D000020F8224006E030F822401C4044F4C06312
:103D100020F822300C7830F8245048F68F72154085
:103D200048F280031D43254320F824508D7A48F63D
:103D3000BF7904274BF68F7A48F2C0044CF2800614
:103D4000EDB30D7830F825C048F280180CEA020C6B
:103D50004CEA080C20F825C0CD88B0F850C025F0FA
:103D6000010591F800800CEBC80C00EB4C0CCCF872
:103D700000540D89B0F850C025F0010591F800807D
:103D800007EBC807674400EB4707C7F800544D78B6
:103D9000002D0D7830F825704FEA47477DD0002F71
:103DA00005DA30F825701740374320F825700D7874
:103DB00030F825707F0608D530F8257001E024E042
:103DC0001DE01740274320F825700C7830F8245068
:103DD0001540354320F824500C7830F8242002EAAE
:103DE00009021A4320F824200A7830F8221001EA48
:103DF0000A01194320F822100020BDE8F08730F8AE
:103E000022401C4044F4806382E74D78F5B18D88F0
:103E1000B0F8506025F001050F7806EBC70600EBFF
:103E20004606C6F800540D7830F82560760605D5AC
:103E300030F825601640264320F825600A7830F8CF
:103E4000221001EA090181F02001D2E78C88B0F844
:103E5000505024F0010491F800C007EBCC073D441A
:103E600000EB4505C5F80044B0F850400D78062732
:103E700007EBC5052C4400EB44070C694FF6FF7CAB
:103E800007F580673E2C0CD9C4F34F15E40601D129
:103E90006D1EADB20CEA852400E01EE044F400443F
:103EA00007E0C4F34F05E40701D06D1CADB20CEA86
:103EB00085243C600C7830F824506D0405D530F82A
:103EC00024501540354320F824500A7830F8221049
:103ED00001EA0A0181F440518BE7002F05DA30F83E
:103EE00025701740374320F825700D7830F825608D
:103EF000760605D530F825601640264320F8256063
:103F00000E7830F826501540254320F826500C78BE
:103F100030F8242002EA0A0282F440521A4320F8C0
:103F200024200A7830F8221001EA090161E7002014
:103F3000704730B54D780A78002D48F68F7430F808
:103F4000225048F2800312D06D0607D530F8225077
:103F5000254048F2C004254320F822500A7830F862
:103F6000221048F6BF74214081F0300111E06D0449
:103F700007D530F8225025404CF28004254320F824
:103F800022500A7830F822104BF68F74214081F4C9
:103F90004051194320F82210002030BD10B50A7896
:103FA00048F2800352B14978002930F8221010D02D
:103FB00048F6BF74214081F010010FE001884BF6F4
:103FC000BF72114081F4805181F0100119430180CA
:103FD00007E04BF68F74214081F48051194320F89B
:103FE0002210002010BD00002DE9F0410D460646CC
:103FF00089696F780622AB7A28690C464FF0000C6D
:1040000048F28008012F05D0814258D90446081A89
:10401000A86156E0814203D90446081AA86101E06C
:10402000C5F818C083B1B6F85000297802EBC10179
:10403000084406EB4000C0F80044287836F8200019
:10404000400613D52A8912E0A3B2AA8830466969CE
:1040500000F08DF8B6F850002978022202EBC10179
:10406000084406EB4000C0F800441FE0EA88A3B211
:104070003046696900F07BF8697848F68F7011B1B5
:1040800001290AD012E02A7836F82210014048F2BD
:10409000C000014326F8221008E0297836F82120D4
:1040A00002404CF28000024326F82120297836F89D
:1040B000210048F6BF72104080F0300027E0C5F8BC
:1040C00018C04FF6FF7103B1CFB9B6F850002B7886
:1040D0003E2C02EBC302104406EB400202F5806264
:1040E0001FD9C4F34F10E30618D000BF01EA8020A7
:1040F00040F4004002E000BF01EA8020106029780F
:1041000036F821004BF68F72104080F4405040EAA0
:10411000080026F821000020BDE8F081401E80B292
:10412000E4E7C4F34F00E307E6D0401C80B2E3E7C6
:104130000148FCF778BF0000B8020020B0F8440046
:10414000704700005B1C00EB42005B0800F58060DC
:1041500006D000BF30F8042B21F8022B5B1EF9D1EA
:10416000704711B98021A0F84C100020704710B59D
:104170005B1C00EB42005B0800F5806009D011F881
:10418000012B5B1E11F8014B42EA042220F8042B9C
:10419000F5D110BD642000F04DF9FBE770B518486B
:1041A000FCF728FC0A211648FCF79CFB1448FCF796
:1041B000F1FA144C012120801148FCF723FA6080A9
:1041C00002210F48FCF71EFAA080208840F6B215A5
:1041D0000D4E4FF48041A84201D9012200E0002297
:1041E0003046FCF73EFD60884FF40041A84201D9FB
:1041F000012200E000223046BDE87040FCF731BDEE
:10420000800700201C000020000C01400FB4084B68
:1042100010B504A902AA039800F01CF8044602A9EC
:10422000002000F0C1F8204610BC5DF814FB00002F
:10423000A943000802E008C8121F08C1002AFAD1E9
:1042400070477047002001E001C1121F002AFBD116
:10425000704700002DE9FF4F89B09B4604460025BA
:1042600006E025280BD05A460B999047641C6D1C1C
:1042700020780028F5D10DB02846BDE8F08F002742
:10428000B8460122474900E0074314F8013F203BAC
:1042900002FA03F00842F7D120782E2819D114F839
:1042A000010F47F004072A280ED06FF02F02207864
:1042B000A0F1300109290CD808EB880102EB41017B
:1042C00000EB0108641CF2E70A98641C50F8048BA8
:1042D0000A9020780028CED0642808D0692806D01B
:1042E00075281ED05A460B9990476D1C58E00A99C4
:1042F0004FF00A0901C90A91002802DA40422D2133
:1043000002E0390504D52B218DF82010012103E0AE
:10431000F90704D02021F7E78A4608AE0DE0002116
:10432000FAE70A994FF00A0901C90A91F7E74946E5
:10433000FBF76EFF303106F8011D0028F7D1ADEB19
:10434000060000F12009780701D44FF00108C845A4
:1043500002DDA8EB090000E000208046002706E00F
:1043600008A85A46C05D0B9990476D1C7F1C5745A5
:10437000F6DB04E030205A460B9990476D1CB8F1EB
:104380000001A8F10108F5DC05E016F8010B5A461A
:104390000B9990476D1CB9F10001A9F10109F4DCFA
:1043A000641C65E7092801000A68531C0B60107043
:1043B000704700008AB0FCF7F7FCFFF731F81749A7
:1043C0004FF0FF304860FEF765FBFBF7A7FFFEF7F5
:1043D0006DF9FEF767FFFEF7E1FBFEF7FBFB4FF021
:1043E000E0214020C1F8000114220D496846FBF786
:1043F000EBFE0021684600F033F80A4C084914220D
:104400006060143105A8FBF7DFFE002105A800F06D
:1044100027F8A06000F015F8FEE70000002004E097
:10442000E84C00080400002001460020842900D048
:10443000C81C704710B500B9012000F003FA002035
:1044400010BD10B500F026FA002010BD10B500F028
:1044500087FB012803D0BDE8104000F0ADBA10BDC5
:1044600030B5044685B00D46B0F90800FFF7DCFF13
:10447000002104AA0090CDE901210391208A2B4656
:1044800082B2D4E9001000F0A9FA012802D000207D
:1044900005B030BD0498FBE770B50B4C05462068AD
:1044A0004560E0682168854205D2606BBDE87040D8
:1044B000091D00F037B9206B091D00F033F9A06A1F
:1044C000854200D2A56270BD5C00002070B5124E1E
:1044D000124C1AE000F004FA3068D0B100F0AEFBE4
:1044E00000F044F9F068C568281D00F0FBF8A068EA
:1044F000401EA0606068401E606000F051F9286BAB
:1045000000F060F9284600F05DF960680028E1D10C
:1045100070BD00F093FBF8E7B41400205C000020AD
:1045200010484FF44061420706D0C01D0D4920F0ED
:104530000700411AC1F540610B4A00230144C2E95A
:1045400000030839103A21F0070111604B600B603D
:104550000B1AC0E9001393604FF000405360D06025
:1045600070470000EC07002054000020044C00BFFE
:10457000FFF7ACFF20680128FAD900F057F9F7E7F8
:10458000EC13002030B5114900E011460A68824260
:10459000FBD34B685C18844203D1406818444860E0
:1045A000084643681C18944209D1084C103C246802
:1045B000A24209D052681A4442600A681268026036
:1045C000814200D0086030BD0460F9E7540000204B
:1045D0000648016B096829B1016BC968C968496857
:1045E000816270474FF0FF31FAE700005C00002065
:1045F00004484068401C02D0FBF7C6FDFEE7FBF70D
:10460000C3FDFEE7380000202DE9F04105460027F4
:1046100000F066F92A4E306808B9FFF781FFF068AC
:10462000054242D1F5B30835680709D005F0070007
:10463000C0F108000544680702D0FBF7A5FDFEE7BE
:1046400085B37068854230D81D48103001460C682B
:1046500001E020460C466168A94202D22168002987
:10466000F7D131688C4220D007682168016060680A
:104670000837411B102909D96019420702D0FBF7FE
:1046800083FDFEE741606560FFF77CFF616870684D
:10469000401A7060B268904200D2B060F068014386
:1046A000002000E001E0C4E9000100F0C7FA78074B
:1046B00002D0FBF769FDFEE73846BDE8F081000057
:1046C0004400002010B5031F4FF080741C601B1FB6
:1046D0001960191F024B0B60143940380A6010BD75
:1046E000F1450008D0E9013201699A60D0E901235F
:1046F0005A604A68824201D182684A60002202619F
:104700000868401E0860704700F108014FF0FF3252
:10471000C0E90112C1600161002101607047002100
:104720000161704730B50B685A1C02D000F10802D5
:1047300002E0026904E02246546825689D42FAD9E5
:1047400053684B6099608A60516008610168491C38
:10475000016030BD42684A6093688B60936859601D
:10476000916008610168491C0160704710B5FBF752
:104770000BFD09484168491CBFF34F8FBFF36F8F92
:104780004160012906D105480068C00602D0FBF748
:10479000FBFCFEE710BD00003800002004ED00E047
:1047A000074910B5486830B1401E486006D1BDE8E1
:1047B0001040FBF7F0BCFBF7E7FCFEE710BD000084
:1047C0003800002070B500281DD00F4DA0F108045E
:1047D0006068E968084202D1FBF7D6FCFEE7226870
:1047E00012B1FBF7D1FCFEE78843606000F078F877
:1047F00060686968084468602046FFF7C3FEBDE84A
:10480000704000F01BBA70BD4400002006484FF411
:104810007A710068B0FBF1F14FF0E020491E416170
:1048200007210161704700002400002004494FF077
:1048300080500860BFF34F8FBFF36F8F7047000049
:1048400004ED00E070B502001DD0114CE06A10B11B
:10485000FBF79AFCFEE700F043F8E0688518206853
:10486000001DFFF73FFF38B9206890F82C10012099
:1048700088402169814321612846FFF70DFE00F041
:10488000DDF9002803D1BDE87040FFF7CFBF70BD50
:104890005C0000201FB5002400940194029423467C
:1048A00080220BA10C48039400F098F8012804D052
:1048B00000280CD1FBF768FCFEE7FBF765FC074816
:1048C00001214161C460BDE81F4000F03BB81FBD3D
:1048D00049444C45000000006D4500085C00002084
:1048E0000248C16A491CC162704700005C00002098
:1048F000124810B5C16A11B10121C16110BD00217A
:10490000C16101690E4AB1FA81F1C1F11F0101EBE8
:10491000810152F821306BB102EB810101F10803F2
:104920004A6852684A609A4201D152684A60D16826
:10493000016010BDFBF728FCFEE700005C000020D2
:10494000EC1300201CB5194908780190FF2008706D
:1049500008788DF800009DF80000154A00F050001E
:1049600010700720906005E09DF800305B008DF826
:104970000030401E9DF800301B06F5D4000200F404
:10498000E0609060019808700A48016841F4700185
:104990000160016841F070410160FFF737FF0020BE
:1049A0005060FBF7BFFB00201CBD000000E400E0EE
:1049B0003800002020ED00E010B5FBF7E5FB00F02B
:1049C000DDF818B104494FF080500860BDE8104090
:1049D0000020FBF7E0BB000004ED00E02DE9FF5FE5
:1049E0001546DDE90E68109F8A465FEA000B04D089
:1049F000072E05D3FBF7C8FBFEE7FBF7C5FBFEE779
:104A00005420FFF701FE04001CD0A80081469FB18E
:104A10003846206398B1A5224946FBF7E7FB6FF0C3
:104A20000301206B01EB8501084420F0070778079C
:104A30000BD0FBF7A9FBFEE7FFF7E6FDE9E7204611
:104A4000FFF7C0FE4FF0FF3482E0514635460020AC
:104A500022180B5C82F834300A5C12B1401C10281A
:104A6000F6D3002084F84300072D00D30625E56225
:104A7000C4E91350201DFFF752FE04F11800FFF7A0
:104A80004EFE2461C5F107016462A16159463846B2
:104A9000039AFFF717FE2060B8F1000F01D0C8F8A5
:104AA0000040FFF763FE2C4DA868401CA8602868F2
:104AB000DFF8A88010B1686948B32DE02C60A868C1
:104AC000012829D15FF0000707EB870108EB81007F
:104AD000FFF71AFE7F1C072FF6D320488C30FFF714
:104AE00013FE1E48A030FFF70FFE1C48B430FFF73E
:104AF0000BFE1A48C830FFF707FE1848DC30FFF7F6
:104B000003FE16488C3028631430686304E028687C
:104B1000C06AB04200D82C60686A401C6862606459
:104B2000E16A01202A6988401043286101EB810174
:104B300008EB8100211DFFF70DFE0124FFF730FE79
:104B4000686928B12868C06AB04201D2FFF76EFEDA
:104B500004B02046BDE8F09F5C000020EC1300206C
:104B60000548416919B1C06A18B100207047012099
:104B700070470220704700005C0000202DE9F041E2
:104B80002C4C0026E06A40B1A069401CA061E0699D
:104B900000B101263046BDE8F081E068401CE060CD
:104BA000E76877B9206B006810B1FBF7EDFAFEE714
:104BB000206B616B21636063206A401C2062FFF7F9
:104BC00007FDA06ADFF87080874209D3206B006878
:104BD00080B1206BC068C568686887420DD2A0624A
:104BE0002068C06A00EB800158F821000128CED966
:104BF0000126CCE74FF0FF30F1E7281DFFF772FDEB
:104C0000A86A18B105F11800FFF76CFDE96A0120E8
:104C1000226988401043206101EB810108EB81008B
:104C2000291DFFF797FDE86A2168C96A8842CDD33C
:104C30000126CBE75C000020EC1300202DE9F047B3
:104C4000274C0026E06A38B1FFF790FDE06A401E6D
:104C5000E062E06A18B13DE0FBF796FAFEE7A16872
:104C6000204D012079B3A5F1B40980462868E8B148
:104C7000E868C76807F11800FFF734FD381DFFF733
:104C800031FDF96A226908FA01F01043206101EB55
:104C9000810109EB8100391DFFF75CFDF86A21688D
:104CA000C96A8842E2D3C4F81C80DFE7A06958B122
:104CB0004546A06940B1FFF761FF00B1E561A06919
:104CC000401EA061F5E705E0E069012802D1012658
:104CD000FFF7ACFDFFF764FD3046BDE8F08700004C
:104CE0005C000020A01400202C4D0008393300087F
:104CF000000000000000000000010000204D00083E
:104D000095410008000000000000000000010000C4
:104D10000000000001020304010203040607080961
:104D2000557365725461736B0000000064656661C1
:104D3000756C745461736B00584D000800000020BE
:104D40009C00000034420008F44D00089C00002044
:104D50004418000044420008000000000000000069
:104D60000000000000000000000000000000000043
:104D700000000000000000000000000000A24A0443
:104D800000000000000000000102030406070809FB
:104D900000000000AAAAAAAA00000000000000006B
:104DA0000000000000000000000000000000000003
:104DB00000000000000000000000000000000000F3
:104DC00000000000000000000000000000000000E3
:104DD000000000000000000000000000FFFFFFFFD7
:104DE00000000000000000000000000000000000C3
:044DF00000000000BF
:04000005080000ED02
:00000001FF
